:020000040000FA
:1000000018040020AD020000590F0000110F00007D
:10001000510F0000310300004911000000000000F2
:10002000000000000000000000000000690F000058
:100030003903000000000000610F0000710F000094
:10004000CB020000CB020000CB020000CB0200007C
:10005000CB020000CB020000CB020000CB0200006C
:10006000CB020000CB020000CB020000CB0200005C
:10007000CB020000CB020000CB020000CB0200004C
:10008000CB020000CB020000CB020000CB0200003C
:10009000CB020000CB020000CB020000CB0200002C
:1000A000CB020000CB020000CB020000CB0200001C
:1000B000CB020000CB020000CB020000CB0200000C
:1000C000CB020000CB020000CB020000CB020000FC
:1000D000CB020000CB020000CB020000CB020000EC
:1000E000CB020000CB02000000000000CB020000A9
:1000F000CB020000CB020000CB020000CB020000CC
:10010000CB020000CB020000CB020000CB020000BB
:10011000CB020000CB020000CB020000CB020000AB
:10012000CB020000CB020000CB020000CB0200009B
:10013000CB020000CB020000CB020000CB0200008B
:1001400000000000000000000000000000000000AF
:10015000CB020000CB020000CB020000CB0200006B
:10016000CB020000CB020000CB020000CB0200005B
:10017000CB020000CB020000CB020000CB0200004B
:10018000CB020000CB020000CB020000CB0200003B
:10019000CB020000CB020000CB020000CB0200002B
:1001A000CB020000CB020000CB020000CB0200001B
:1001B000CB020000CB020000CB020000CB0200000B
:1001C000CB020000CB020000CB020000CB020000FB
:1001D000CB020000CB020000CB020000CB020000EB
:1001E000CB020000CB020000CB020000CB020000DB
:1001F000CB020000CB020000CB020000CB020000CB
:10020000CB020000CB020000CB020000CB020000BA
:10021000CB020000CB020000CB020000CB020000AA
:10022000CB020000CB020000CB0200000000000067
:10023000CB020000CB02000000000000CB02000057
:10024000CB020000CB020000CB020000CB0200007A
:10025000CB020000CB020000CB020000CB0200006A
:10026000CB020000CB020000CB020000CB0200005A
:10027000CB020000CB020000CB0200000000000017
:10028000CB020000CB020000CB0200000000000007
:1002900000000000CB020000DFF80CD000F02EF8C8
:1002A000004800475111000018040020074880470B
:1002B0000748804707480047FEE7FEE7FEE7FEE7FE
:1002C000FEE7FEE7FEE7FEE7FEE7FEE7410300008C
:1002D0005910000099020000D2B201E000F8012B91
:1002E000491EFBD270470022F6E710B513460A46B6
:1002F00004461946FFF7F0FF204610BD1CB509481B
:100300000090094801900546009C06E0E06840F036
:10031000010394E8070098471034AC42F6D3FFF786
:10032000BFFF0000B4110000D41100000000000065
:10033000FEE7000000000000704700000000000021
:1003400044F60400C5F60200816841F002018160B4
:100350000168890409D4016889045CBF01685FEA07
:10036000814102D401688904F2D570470000000081
:1003700041F20000C5F600400068000C7047000024
:1003800040F21000C2F20000006870470000000058
:1003900040F2000040F21001C2F20000C2F200017F
:1003A00000780A68104408607047000000000000F0
:1003B00080B5032000F0E8F800F04AFA44F2184152
:1003C00041F2A413C5F60201C0F200030A68C2F3A9
:1003D00003229A5C096801F00F0102F01F02595CC8
:1003E000D04040F20C02C2F2000201F01F0120FADC
:1003F00001F1116040F20801C2F2000108600F2013
:1004000000F00AF800281CBF012080BD00F07CF835
:10041000002080BD00000000B0B540F20005C2F22F
:1004200000052978F1B1044640F20800C2F200004C
:100430004FF47A72B2FBF1F10068B0FBF1F000F01A
:100440004FFD0F2C01464FF001000AD8002918BFBC
:10045000B0BD4FF0FF300022214600F065F80020CB
:100460006C60B0BD0120B0BD10B54EF6A05E437803
:10047000CEF2000E90F800C04EF8083CDEF80030D6
:1004800023F00103CEF8003043684EF8043C037BB0
:10049000C27A817A447B120642EA0372837B42EA83
:1004A000C141C27B41EA8441447A41EA4341007A36
:1004B00041EA024141EA042141EA400040EA0C00DD
:1004C000CEF8000010BD00004EF62450CEF2000021
:1004D000BFF35F8F016821F4803101600021016763
:1004E00070470000000000004EF6245140F001006B
:1004F000CEF200010867086840F480300860BFF35E
:100500004F8FBFF36F8F704781B044F2F440C5F650
:100510000200016841F002010160006800F0020081
:100520000090009801B0704770B54EF60C5C4FF02B
:10053000FF36CEF2000C00F1604505F56445DCF8AD
:100540000030C3F3022E8EF00703042B28BF0423D0
:10055000BEF1030406FA03F321EA030100F00F03DE
:1005600038BF0024043B0028634406FA04F048BF67
:1005700003F10C05A14022EA0000084300012870A5
:1005800070BD0000000000004EF60C514FF6FF0356
:10059000CEF200010A681A4060F30A2242F080603D
:1005A00040F0FD7008607047B0B544F60C05C5F624
:1005B000020529684907296806D401F00701081ACD
:1005C00018BF0120B0BD00BF21F00701084328601B
:1005D000FFF7D6FE044600BF55F8080C800407D488
:1005E000FFF7CEFE001BB0F57A7FF5D90120B0BD34
:1005F0000020B0BD000000002DE9F04381B00028CC
:1006000000F0208142F200090446C5F20029D9F821
:10061000000000F00F0081420DD9D9F8000020F051
:100620000F000843C9F80000D9F8000000F00F00DF
:10063000884240F00781206844F218464207C5F618
:1006400002060AD52269336803F070039A4204D97E
:10065000336823F070031A43326002070AD56269D7
:10066000736803F070039A4204D9736823F070032F
:100670001A437260C2060AD5A269736803F4E06384
:100680009A4204D9736823F4E0631A4372608206C5
:100690000AD5E269B36803F070039A4204D9B368DB
:1006A00023F070031A43B26010F002020AD0E3682C
:1006B000376807F00F07BB4204D9376827F00F07E8
:1006C0003B433360C3073FD0306820F47062D4E905
:1006D00001031A433260012856F8182C0AD0032867
:1006E00004D002280AD192030BD4ABE0920108D4C3
:1006F000A8E000BFD20504D4A4E000BF520740F137
:10070000A180884656F8081C21F00701084346F8E6
:10071000080CFFF735FE054641F2883756F8080CFD
:10072000616800F03800B0EBC10F09D0FFF728FE78
:10073000401BB842F2D9032001B0BDE8F08300BFEE
:100740002068414600F0020252B1E268336803F0CB
:100750000F039A4204D2336823F00F031A43326026
:10076000D9F8002002F00F0291420CD2D9F80020F3
:1007700022F00F020A43C9F80020D9F8002002F045
:100780000F028A425ED141070AD52169326802F020
:100790007002914204D2326822F07002114331603B
:1007A00001070AD56169726802F07002914204D2B1
:1007B000726822F0700211437160C1060AD5A16906
:1007C000726802F4E062914204D2726822F4E0623C
:1007D0001143716080060AD5E069B16801F07001CB
:1007E000884204D2B16821F070010843B06000F083
:1007F0002FF8316841F2A412C0F20002C1F30321C4
:10080000515C336803F00F0301F01F01D25C20FA42
:1008100001F102F01F0040F20C02C2F2000221FAC4
:1008200000F0106040F2040040F20802C2F2000042
:10083000C2F200020068116001B0BDE8F043FFF7AA
:10084000EBBD00BF012001B0BDE8F0830000000057
:1008500044F20041C5F602010869C0F3C200032852
:1008600016D002280ED0002832D10868800649F23E
:100870000000C0F2D03058BF70470968C1F3C10111
:10088000C840704747F64000C0F27D10704700BF77
:100890008B6A886AD1F82CC04A6BC0F30510E8B1A6
:1008A000C2F3CC0203F0030300EE102A9FED2A1AD4
:1008B000B8EE400A20EE010A9FED281ADFE803F0A7
:1008C000022110210A6892060ED49FED261A18E024
:1008D00040F60010C0F23D00704700BF0020704796
:1008E0009FED1F1A0DE000BF0A6849F20003C0F235
:1008F000D033C2F3C10223FA02F201EE102AB8EE9D
:10090000411A0A6B9FED183A6FF35F2202EE102A2C
:100910005FEACC7203FE000A03EE100A086BB8EE21
:10092000422AC0F34620B8EE433A013030EE020AC4
:10093000B7EE002A81EE031A30EE020A21EE000A19
:1009400001EE100AB8EE411A80EE010ABCEEC00AB0
:1009500010EE100A704700BF000000390024744AEE
:1009600020BCBE4B0024744C0000000000000000BE
:1009700070B3F0B581B00446007844F20046C00779
:10098000C5F6020626D12078800740F1C280306982
:1009900010F03801B06A3FD0182908BF5FEA8070B4
:1009A0003AD0E0683168002862D021F0190108438C
:1009B0003060FFF7E5FC05463068400748D4FFF794
:1009C000DFFC401B0228F7D9032001B0F0BD00BFB7
:1009D00001207047306900F03801B06A102905D055
:1009E00018290BD100F00300022807D130688003DA
:1009F000C9D560680028C6D13CE100BF6168306895
:100A000000294FD0B1F5A02F44D0B1F5803F5FD180
:100A100040F4803062E000BF30684007E06802D5F3
:100A2000002800F02781316821F019010843306067
:100A3000FFF7A6FC054600BF3068400708D4FFF763
:100A40009FFC401B02284FF00300F5D901B0F0BD18
:100A5000FFF78EFC41F2030188424FD8206971688C
:100A6000402821F47C3151D141F4003050E000BFE6
:100A700021F001003060FFF783FC05463068400735
:100A800047D5FFF77DFC401B02284FF00300F5D946
:100A9000DCE700BF40F480203060306840F48030F4
:100AA0001CE000BF20F480303060306820F48020EB
:100AB0003060FFF765FC0546306880037FF563AF63
:100AC000FFF75EFC401B64284FF00300F4D9BDE73C
:100AD00020F480303060306820F480203060FFF7F0
:100AE0004FFC0546306880033FF54DAFFFF748FCEB
:100AF000401B6428F6D9032001B0F0BD706821695D
:100B000020F0FE4040EA016002E000BF41EA003010
:100B100070602078C00654D5306900F03801B06AA2
:100B2000082905D0182919D100F00300012815D192
:100B30003068C00503D5E069802840F09B80FFF74E
:100B400017FC41F2030188421ED8206A71682028F0
:100B500021F0F84132D141F0804031E0E0690028D5
:100B6000306819D040F080003060FFF709FC05467E
:100B70003068C005E3D4FFF703FC401B02284FF0A8
:100B80000300F5D962E700BFF068216A20F07C50CD
:100B900040EA0160F06014E020F080003060FFF770
:100BA000EFFB05463068C0050BD5FFF7E9FB401B9E
:100BB00002284FF00300F5D948E700BF41EA806002
:100BC0007060207800073FD42078800656D42078C3
:100BD000400769D4656A9DB3306900F03800182871
:100BE00040F0A880012DB16A306B43D001F00302C0
:100BF000A36A9A423ED1C1F30511E26A914239D10A
:100C00000146226B6FF35F21013A914232D1C0F36A
:100C10004622616B01398A422CD1C0F30642A16B96
:100C200001398A4226D1C0F30660E16B013988425E
:100C300020D1706BA16CC0F3CC00814240F03481B4
:100C4000002001B0F0BD00BF60690028706F41D086
:100C500040F001007067FFF793FB0546706F800757
:100C6000B2D4FFF78DFB401B0228F7D9032001B057
:100C7000F0BD00BF012001B0F0BD00BFA069002899
:100C8000306845D040F480503060FFF779FB05466E
:100C9000306880049BD4FFF773FB401B0228F7D910
:100CA000032001B0F0BD00BFD6F8000440F480700E
:100CB000C6F80004FFF764FB054600BFD6F8000441
:100CC000C00519D4FFF75CFB401B6428F6D903204C
:100CD00001B0F0BD20F001007067FFF751FB054641
:100CE000706F80077FF570AFFFF74AFB401B02284B
:100CF0004FF00300F4D9A9E6A168306F002943D072
:100D0000052939D0012957D140F001005AE000BF30
:100D100020F480503060FFF733FB054630688004D4
:100D20007FF555AFFFF72CFB401B02284FF0030067
:100D3000F4D98BE6306820F080703060FFF720FB3C
:100D4000022D05460CD100BF306880014CD5FFF75D
:100D500017FB401B02284FF00300F5D976E600BFD1
:100D6000306880017FF56CAFFFF70AFB401B02285B
:100D70004FF00300F4D969E640F004003067306FAB
:100D800040F001001EE000BF20F001003067306F2E
:100D900020F004003067FFF7F3FA054641F2883788
:100DA000306F80077FF516AFFFF7EAFA401BB842B5
:100DB0004FF00300F4D949E620F001003067306FAE
:100DC00020F004003067FFF7DBFA054641F2883770
:100DD000306F80073FF5FEAEFFF7D2FA401BB842F6
:100DE0004FF00300F4D931E604F12807B06A40F26D
:100DF000F33188438ECF0843591E40EA02104FF466
:100E00007E426FF35F21B06202EB47204FF4FE0297
:100E100080B2E36B0844A16B02EB01414FF0FE424C
:100E200001F4FE0102EB0362084402F0FE410844B3
:100E30003063F06A4FF6F87120F00100F062706BD9
:100E4000A26C884340EAC2007063F06A216C20F013
:100E50000C000843F062F06A616C20F00200084365
:100E6000F062F06A40F48030F062F06A40F40030E2
:100E7000F062F06A40F48020F062F06A40F0010015
:100E8000F062306840F080703060FFF779FA044615
:100E9000306880013FF5D4AEFFF772FA001B0228DC
:100EA0004FF00300F4D9D1E5F06A20F00100F062C0
:100EB000FFF766FA0546FFF763FAA842FBD0706BAE
:100EC0004FF6F871A26C884340EAC2007063F06A82
:100ED00040F00100F062002001B0F0BD0000000011
:100EE000411E0020B0EB116F02D00120704700BFFF
:100EF0004EF21002F023CEF2000251604EF6235162
:100F0000CEF200010B700721906011607047000065
:100F1000FEE700000000000082B044F2E040C5F6A9
:100F20000200016841F080010160016801F0800168
:100F300001910199016841F001010160006800F030
:100F400001000090009802B070470000000000000F
:100F5000FEE7000000000000FEE7000000000000C7
:100F60007047000000000000704700000000000013
:100F7000FFF70EBA00000000B0B59CB044F61804AC
:100F800009A84C21C5F60204FFF7ADF9022000259F
:100F9000CDE90755CDE90555CDE90355CDE9015515
:100FA000FFF702FB0095206840F440402060206875
:100FB00000F44040009040F22C40C5F6000001686B
:100FC00041F001010160006800F00100009000980C
:100FD0002068800409D4206880045CBF20685FEA30
:100FE000804002D420688004F2D5022009900121BB
:100FF0000C9112900025042114913C214024CDE94C
:101000001510CDE917000C200D94CDE9190509A89C
:1010100013951B95FFF7ACFC20B1EFF3108072B66F
:10102000FEE700BF3F20019003200421CDE9020527
:1010300008200694CDE904044FF48060CDE907044C
:1010400001A8FFF7D9FA28B1EFF3108072B600BFFC
:10105000FEE700BF1CB0B0BD4EF6885042F2000C57
:10106000CEF20000C5F2002C016841F4700101606D
:10107000DCF8000000F00F00062806D8DCF80000BD
:10108000072161F30300CCF8000044F200404EF663
:101090007F52C5F60200CEF6F622016841F001014A
:1010A00001600021016103681A400260DCF8002041
:1010B000120706D5DCF80020072363F30302CCF8FF
:1010C000002040F200228161C161C0F2022201626F
:1010D00082620022C0F2FF12C26240F28022C0F29D
:1010E0000112026341638263C16302644164026866
:1010F00022F48022026041F200020166C5F600423D
:101100001268B1EB527F05D148F208110122C5F2F5
:1011100000110A60D0F8D410C90448BF7047D0F855
:10112000D41043F2D20241F48051C0F8D41044F2FA
:101130000001C5F200210A60D0F8D41021F48051DA
:10114000C0F8D41070470000FEE700000000000067
:1011500084B001200090FFF7B7F90020019048F219
:101160001F70029040F2011003906846FFF77CF96F
:101170000420FFF7B9F9FFF71BF9FFF7FDFEFFF7B2
:10118000CBFE00BFFEE702E008C8121F08C1002A1C
:10119000FAD170477047002001E001C1121F002AF8
:1011A000FBD17047000000000102030401020304A8
:1011B00006070809D81100000000002010000000F8
:1011C00086110000E8110000100000200804000053
:1011D0009611000000000000010000001000000057
:0811E0000090D0030090D00341
:04000005000002995C
:00000001FF
